{
  "_format": "hh-sol-artifact-1",
  "contractName": "VoteEscrow",
  "sourceName": "contracts/VoteEscrow.sol",
  "abi": [
    {
      "inputs": [
        {
          "internalType": "uint256",
          "name": "betAmount",
          "type": "uint256"
        },
        {
          "internalType": "uint32",
          "name": "validators",
          "type": "uint32"
        },
        {
          "internalType": "bytes32",
          "name": "root",
          "type": "bytes32"
        },
        {
          "internalType": "string",
          "name": "URI",
          "type": "string"
        }
      ],
      "stateMutability": "nonpayable",
      "type": "constructor"
    },
    {
      "anonymous": false,
      "inputs": [
        {
          "indexed": true,
          "internalType": "address",
          "name": "account",
          "type": "address"
        },
        {
          "indexed": true,
          "internalType": "address",
          "name": "operator",
          "type": "address"
        },
        {
          "indexed": false,
          "internalType": "bool",
          "name": "approved",
          "type": "bool"
        }
      ],
      "name": "ApprovalForAll",
      "type": "event"
    },
    {
      "anonymous": false,
      "inputs": [
        {
          "indexed": true,
          "internalType": "address",
          "name": "previousOwner",
          "type": "address"
        },
        {
          "indexed": true,
          "internalType": "address",
          "name": "newOwner",
          "type": "address"
        }
      ],
      "name": "OwnershipTransferred",
      "type": "event"
    },
    {
      "anonymous": false,
      "inputs": [
        {
          "indexed": true,
          "internalType": "address",
          "name": "operator",
          "type": "address"
        },
        {
          "indexed": true,
          "internalType": "address",
          "name": "from",
          "type": "address"
        },
        {
          "indexed": true,
          "internalType": "address",
          "name": "to",
          "type": "address"
        },
        {
          "indexed": false,
          "internalType": "uint256[]",
          "name": "ids",
          "type": "uint256[]"
        },
        {
          "indexed": false,
          "internalType": "uint256[]",
          "name": "values",
          "type": "uint256[]"
        }
      ],
      "name": "TransferBatch",
      "type": "event"
    },
    {
      "anonymous": false,
      "inputs": [
        {
          "indexed": true,
          "internalType": "address",
          "name": "operator",
          "type": "address"
        },
        {
          "indexed": true,
          "internalType": "address",
          "name": "from",
          "type": "address"
        },
        {
          "indexed": true,
          "internalType": "address",
          "name": "to",
          "type": "address"
        },
        {
          "indexed": false,
          "internalType": "uint256",
          "name": "id",
          "type": "uint256"
        },
        {
          "indexed": false,
          "internalType": "uint256",
          "name": "value",
          "type": "uint256"
        }
      ],
      "name": "TransferSingle",
      "type": "event"
    },
    {
      "anonymous": false,
      "inputs": [
        {
          "indexed": false,
          "internalType": "string",
          "name": "value",
          "type": "string"
        },
        {
          "indexed": true,
          "internalType": "uint256",
          "name": "id",
          "type": "uint256"
        }
      ],
      "name": "URI",
      "type": "event"
    },
    {
      "anonymous": false,
      "inputs": [
        {
          "indexed": false,
          "internalType": "uint256",
          "name": "amount",
          "type": "uint256"
        },
        {
          "indexed": false,
          "internalType": "bool",
          "name": "believer",
          "type": "bool"
        }
      ],
      "name": "deposit",
      "type": "event"
    },
    {
      "anonymous": false,
      "inputs": [
        {
          "indexed": false,
          "internalType": "uint256",
          "name": "num",
          "type": "uint256"
        }
      ],
      "name": "gameEnded",
      "type": "event"
    },
    {
      "anonymous": false,
      "inputs": [
        {
          "indexed": false,
          "internalType": "uint256",
          "name": "num",
          "type": "uint256"
        }
      ],
      "name": "lock",
      "type": "event"
    },
    {
      "anonymous": false,
      "inputs": [
        {
          "indexed": false,
          "internalType": "bool",
          "name": "",
          "type": "bool"
        }
      ],
      "name": "votedOutcome",
      "type": "event"
    },
    {
      "anonymous": false,
      "inputs": [
        {
          "indexed": false,
          "internalType": "uint256",
          "name": "amount",
          "type": "uint256"
        }
      ],
      "name": "winnerPayout",
      "type": "event"
    },
    {
      "stateMutability": "payable",
      "type": "fallback"
    },
    {
      "inputs": [
        {
          "internalType": "address",
          "name": "",
          "type": "address"
        }
      ],
      "name": "addyToVote",
      "outputs": [
        {
          "internalType": "bool",
          "name": "",
          "type": "bool"
        }
      ],
      "stateMutability": "view",
      "type": "function"
    },
    {
      "inputs": [
        {
          "internalType": "address",
          "name": "account",
          "type": "address"
        },
        {
          "internalType": "uint256",
          "name": "id",
          "type": "uint256"
        }
      ],
      "name": "balanceOf",
      "outputs": [
        {
          "internalType": "uint256",
          "name": "",
          "type": "uint256"
        }
      ],
      "stateMutability": "view",
      "type": "function"
    },
    {
      "inputs": [
        {
          "internalType": "address[]",
          "name": "accounts",
          "type": "address[]"
        },
        {
          "internalType": "uint256[]",
          "name": "ids",
          "type": "uint256[]"
        }
      ],
      "name": "balanceOfBatch",
      "outputs": [
        {
          "internalType": "uint256[]",
          "name": "",
          "type": "uint256[]"
        }
      ],
      "stateMutability": "view",
      "type": "function"
    },
    {
      "inputs": [],
      "name": "collectPayout",
      "outputs": [],
      "stateMutability": "nonpayable",
      "type": "function"
    },
    {
      "inputs": [],
      "name": "countHate",
      "outputs": [
        {
          "internalType": "uint32",
          "name": "",
          "type": "uint32"
        }
      ],
      "stateMutability": "view",
      "type": "function"
    },
    {
      "inputs": [],
      "name": "countLove",
      "outputs": [
        {
          "internalType": "uint32",
          "name": "",
          "type": "uint32"
        }
      ],
      "stateMutability": "view",
      "type": "function"
    },
    {
      "inputs": [
        {
          "internalType": "bool",
          "name": "vote",
          "type": "bool"
        }
      ],
      "name": "depositVote",
      "outputs": [],
      "stateMutability": "payable",
      "type": "function"
    },
    {
      "inputs": [
        {
          "internalType": "bytes32[]",
          "name": "proof",
          "type": "bytes32[]"
        },
        {
          "internalType": "uint256",
          "name": "index",
          "type": "uint256"
        }
      ],
      "name": "endGame",
      "outputs": [],
      "stateMutability": "nonpayable",
      "type": "function"
    },
    {
      "inputs": [],
      "name": "gameEndTime",
      "outputs": [
        {
          "internalType": "uint256",
          "name": "",
          "type": "uint256"
        }
      ],
      "stateMutability": "view",
      "type": "function"
    },
    {
      "inputs": [
        {
          "internalType": "address",
          "name": "account",
          "type": "address"
        },
        {
          "internalType": "address",
          "name": "operator",
          "type": "address"
        }
      ],
      "name": "isApprovedForAll",
      "outputs": [
        {
          "internalType": "bool",
          "name": "",
          "type": "bool"
        }
      ],
      "stateMutability": "view",
      "type": "function"
    },
    {
      "inputs": [
        {
          "internalType": "bytes32[]",
          "name": "proof",
          "type": "bytes32[]"
        },
        {
          "internalType": "uint256",
          "name": "index",
          "type": "uint256"
        }
      ],
      "name": "lockBets",
      "outputs": [],
      "stateMutability": "nonpayable",
      "type": "function"
    },
    {
      "inputs": [],
      "name": "name",
      "outputs": [
        {
          "internalType": "string",
          "name": "",
          "type": "string"
        }
      ],
      "stateMutability": "pure",
      "type": "function"
    },
    {
      "inputs": [
        {
          "internalType": "address",
          "name": "",
          "type": "address"
        }
      ],
      "name": "outcomeVoted",
      "outputs": [
        {
          "internalType": "bool",
          "name": "",
          "type": "bool"
        }
      ],
      "stateMutability": "view",
      "type": "function"
    },
    {
      "inputs": [],
      "name": "owner",
      "outputs": [
        {
          "internalType": "address",
          "name": "",
          "type": "address"
        }
      ],
      "stateMutability": "view",
      "type": "function"
    },
    {
      "inputs": [
        {
          "internalType": "address",
          "name": "",
          "type": "address"
        }
      ],
      "name": "paid",
      "outputs": [
        {
          "internalType": "bool",
          "name": "",
          "type": "bool"
        }
      ],
      "stateMutability": "view",
      "type": "function"
    },
    {
      "inputs": [],
      "name": "renounceOwnership",
      "outputs": [],
      "stateMutability": "nonpayable",
      "type": "function"
    },
    {
      "inputs": [
        {
          "internalType": "address",
          "name": "from",
          "type": "address"
        },
        {
          "internalType": "address",
          "name": "to",
          "type": "address"
        },
        {
          "internalType": "uint256[]",
          "name": "ids",
          "type": "uint256[]"
        },
        {
          "internalType": "uint256[]",
          "name": "amounts",
          "type": "uint256[]"
        },
        {
          "internalType": "bytes",
          "name": "data",
          "type": "bytes"
        }
      ],
      "name": "safeBatchTransferFrom",
      "outputs": [],
      "stateMutability": "nonpayable",
      "type": "function"
    },
    {
      "inputs": [
        {
          "internalType": "address",
          "name": "from",
          "type": "address"
        },
        {
          "internalType": "address",
          "name": "to",
          "type": "address"
        },
        {
          "internalType": "uint256",
          "name": "id",
          "type": "uint256"
        },
        {
          "internalType": "uint256",
          "name": "amount",
          "type": "uint256"
        },
        {
          "internalType": "bytes",
          "name": "data",
          "type": "bytes"
        }
      ],
      "name": "safeTransferFrom",
      "outputs": [],
      "stateMutability": "nonpayable",
      "type": "function"
    },
    {
      "inputs": [
        {
          "internalType": "address",
          "name": "operator",
          "type": "address"
        },
        {
          "internalType": "bool",
          "name": "approved",
          "type": "bool"
        }
      ],
      "name": "setApprovalForAll",
      "outputs": [],
      "stateMutability": "nonpayable",
      "type": "function"
    },
    {
      "inputs": [
        {
          "internalType": "bytes4",
          "name": "interfaceId",
          "type": "bytes4"
        }
      ],
      "name": "supportsInterface",
      "outputs": [
        {
          "internalType": "bool",
          "name": "",
          "type": "bool"
        }
      ],
      "stateMutability": "view",
      "type": "function"
    },
    {
      "inputs": [],
      "name": "symbol",
      "outputs": [
        {
          "internalType": "string",
          "name": "",
          "type": "string"
        }
      ],
      "stateMutability": "pure",
      "type": "function"
    },
    {
      "inputs": [],
      "name": "tokenURI",
      "outputs": [
        {
          "internalType": "string",
          "name": "",
          "type": "string"
        }
      ],
      "stateMutability": "view",
      "type": "function"
    },
    {
      "inputs": [],
      "name": "totalValue",
      "outputs": [
        {
          "internalType": "uint256",
          "name": "",
          "type": "uint256"
        }
      ],
      "stateMutability": "view",
      "type": "function"
    },
    {
      "inputs": [
        {
          "internalType": "address",
          "name": "newOwner",
          "type": "address"
        }
      ],
      "name": "transferOwnership",
      "outputs": [],
      "stateMutability": "nonpayable",
      "type": "function"
    },
    {
      "inputs": [
        {
          "internalType": "bytes32",
          "name": "newRoot",
          "type": "bytes32"
        }
      ],
      "name": "updateRoot",
      "outputs": [],
      "stateMutability": "nonpayable",
      "type": "function"
    },
    {
      "inputs": [
        {
          "internalType": "uint256",
          "name": "_tokenId",
          "type": "uint256"
        }
      ],
      "name": "uri",
      "outputs": [
        {
          "internalType": "string",
          "name": "",
          "type": "string"
        }
      ],
      "stateMutability": "view",
      "type": "function"
    },
    {
      "inputs": [
        {
          "internalType": "bytes32",
          "name": "root",
          "type": "bytes32"
        },
        {
          "internalType": "bytes32[]",
          "name": "proof",
          "type": "bytes32[]"
        },
        {
          "internalType": "address",
          "name": "leaf",
          "type": "address"
        },
        {
          "internalType": "uint256",
          "name": "index",
          "type": "uint256"
        }
      ],
      "name": "verifyProof",
      "outputs": [
        {
          "internalType": "bool",
          "name": "",
          "type": "bool"
        }
      ],
      "stateMutability": "pure",
      "type": "function"
    },
    {
      "inputs": [
        {
          "internalType": "bytes32[]",
          "name": "proof",
          "type": "bytes32[]"
        },
        {
          "internalType": "uint256",
          "name": "index",
          "type": "uint256"
        },
        {
          "internalType": "bool",
          "name": "decision",
          "type": "bool"
        }
      ],
      "name": "voteOutcome",
      "outputs": [],
      "stateMutability": "nonpayable",
      "type": "function"
    },
    {
      "inputs": [
        {
          "internalType": "address",
          "name": "",
          "type": "address"
        }
      ],
      "name": "voted",
      "outputs": [
        {
          "internalType": "bool",
          "name": "",
          "type": "bool"
        }
      ],
      "stateMutability": "view",
      "type": "function"
    },
    {
      "inputs": [
        {
          "internalType": "address",
          "name": "",
          "type": "address"
        }
      ],
      "name": "votedToEndGame",
      "outputs": [
        {
          "internalType": "bool",
          "name": "",
          "type": "bool"
        }
      ],
      "stateMutability": "view",
      "type": "function"
    },
    {
      "inputs": [
        {
          "internalType": "address",
          "name": "",
          "type": "address"
        }
      ],
      "name": "votedToLock",
      "outputs": [
        {
          "internalType": "bool",
          "name": "",
          "type": "bool"
        }
      ],
      "stateMutability": "view",
      "type": "function"
    },
    {
      "inputs": [],
      "name": "withdraw",
      "outputs": [],
      "stateMutability": "nonpayable",
      "type": "function"
    },
    {
      "stateMutability": "payable",
      "type": "receive"
    }
  ],
  "bytecode": "0x60c06040523480156200001157600080fd5b5060405162002fc138038062002fc1833981016040819052620000349162000101565b6040805160208101909152600081526200004e8162000087565b506200005a3362000099565b608084905263ffffffff831660a052600b82905560106200007c828262000295565b505050505062000361565b600262000095828262000295565b5050565b600380546001600160a01b038381166001600160a01b0319831681179093556040519116919082907f8be0079c531659141344cd1fd0a4f28419497f9722a3daafe3b4186f6b6457e090600090a35050565b634e487b7160e01b600052604160045260246000fd5b600080600080608085870312156200011857600080fd5b8451935060208086015163ffffffff811681146200013557600080fd5b6040870151606088015191955093506001600160401b03808211156200015a57600080fd5b818801915088601f8301126200016f57600080fd5b815181811115620001845762000184620000eb565b604051601f8201601f19908116603f01168101908382118183101715620001af57620001af620000eb565b816040528281528b86848701011115620001c857600080fd5b600093505b82841015620001ec5784840186015181850187015292850192620001cd565b600086848301015280965050505050505092959194509250565b600181811c908216806200021b57607f821691505b6020821081036200023c57634e487b7160e01b600052602260045260246000fd5b50919050565b601f8211156200029057600081815260208120601f850160051c810160208610156200026b5750805b601f850160051c820191505b818110156200028c5782815560010162000277565b5050505b505050565b81516001600160401b03811115620002b157620002b1620000eb565b620002c981620002c2845462000206565b8462000242565b602080601f831160018114620003015760008415620002e85750858301515b600019600386901b1c1916600185901b1785556200028c565b600085815260208120601f198616915b82811015620003325788860151825594840194600190910190840162000311565b5085821015620003515787850151600019600388901b60f8161c191681555b5050505050600190811b01905550565b60805160a051612c1e620003a3600039600081816108170152818161099b01528181610a3b0152818161107201526112ec0152600061136d0152612c1e6000f3fe6080604052600436106101ce5760003560e01c80639030eb12116100f6578063c629cdf41161008f578063e985e9c511610061578063e985e9c5146105e1578063f242432a1461062a578063f2fde38b1461064a578063f60d67c41461066a57005b8063c629cdf414610573578063d4c3eea014610588578063da94fe971461059e578063e6096a7e146105ce57005b8063a340cf79116100c8578063a340cf79146104d3578063aec2ccae14610503578063b205417714610533578063be4f7dfa1461055357005b80639030eb121461042657806395d89b4114610456578063a20eb8d714610483578063a22cb465146104b357005b80632eb2c2d61161016857806344d9bc5f1161013a57806344d9bc5f146103a65780634e1273f4146103bc578063715018a6146103e95780638da5cb5b146103fe57005b80632eb2c2d61461032c5780633c130d901461034c5780633ccfd60b14610361578063420c6cd81461037657005b80630e89341c116101a15780630e89341c146102ac5780631750743d146102cc57806321ff9970146102ec5780632cfc336f1461030c57005b8062fdd58e146101d757806301ffc9a71461020a57806306fdde031461023a5780630e45e73a1461027a57005b366101d557005b005b3480156101e357600080fd5b506101f76101f2366004612026565b61068f565b6040519081526020015b60405180910390f35b34801561021657600080fd5b5061022a610225366004612066565b610728565b6040519015158152602001610201565b34801561024657600080fd5b5060408051808201909152600e81526d04b72696e7a6120507573682055760941b60208201525b60405161020191906120da565b34801561028657600080fd5b50600a546102979063ffffffff1681565b60405163ffffffff9091168152602001610201565b3480156102b857600080fd5b5061026d6102c73660046120ed565b610778565b3480156102d857600080fd5b506101d56102e7366004612161565b6107ac565b3480156102f857600080fd5b506101d56103073660046120ed565b600b55565b34801561031857600080fd5b506101d56103273660046121bd565b61098f565b34801561033857600080fd5b506101d5610347366004612351565b610b7f565b34801561035857600080fd5b5061026d610bcb565b34801561036d57600080fd5b506101d5610c59565b34801561038257600080fd5b5061022a6103913660046123fa565b60046020526000908152604090205460ff1681565b3480156103b257600080fd5b506101f7600f5481565b3480156103c857600080fd5b506103dc6103d7366004612415565b610d2d565b604051610201919061251a565b3480156103f557600080fd5b506101d5610e56565b34801561040a57600080fd5b506003546040516001600160a01b039091168152602001610201565b34801561043257600080fd5b5061022a6104413660046123fa565b60086020526000908152604090205460ff1681565b34801561046257600080fd5b506040805180820190915260048152630a0aaa6960e31b602082015261026d565b34801561048f57600080fd5b5061022a61049e3660046123fa565b60066020526000908152604090205460ff1681565b3480156104bf57600080fd5b506101d56104ce36600461252d565b610e6a565b3480156104df57600080fd5b5061022a6104ee3660046123fa565b60096020526000908152604090205460ff1681565b34801561050f57600080fd5b5061022a61051e3660046123fa565b60056020526000908152604090205460ff1681565b34801561053f57600080fd5b506101d561054e3660046121bd565b610e79565b34801561055f57600080fd5b5061022a61056e366004612560565b610f61565b34801561057f57600080fd5b506101d5611066565b34801561059457600080fd5b506101f760115481565b3480156105aa57600080fd5b5061022a6105b93660046123fa565b60076020526000908152604090205460ff1681565b6101d56105dc36600461261f565b6112e0565b3480156105ed57600080fd5b5061022a6105fc36600461263a565b6001600160a01b03918216600090815260016020908152604080832093909416825291909152205460ff1690565b34801561063657600080fd5b506101d5610645366004612664565b611553565b34801561065657600080fd5b506101d56106653660046123fa565b611598565b34801561067657600080fd5b50600a5461029790640100000000900463ffffffff1681565b60006001600160a01b0383166106ff5760405162461bcd60e51b815260206004820152602a60248201527f455243313135353a2061646472657373207a65726f206973206e6f742061207660448201526930b634b21037bbb732b960b11b60648201526084015b60405180910390fd5b506000818152602081815260408083206001600160a01b03861684529091529020545b92915050565b60006001600160e01b03198216636cdb3d1360e11b148061075957506001600160e01b031982166303a24d0760e21b145b8061072257506301ffc9a760e01b6001600160e01b0319831614610722565b606060106107858361160e565b60405160200161079692919061271e565b6040516020818303038152906040529050919050565b6107ef600b54858580806020026020016040519081016040528093929190818152602001838360200280828437600092019190915250339250879150610f619050565b61080b5760405162461bcd60e51b81526004016106f6906127dc565b600261084563ffffffff7f000000000000000000000000000000000000000000000000000000000000000016670de0b6b3a7640000612822565b61084f9190612863565b6001600160401b0316600c54101561089b5760405162461bcd60e51b815260206004820152600f60248201526e18995d1cc81b9bdd081b1bd8dad959608a1b60448201526064016106f6565b3360009081526006602052604090205460ff16156108b857600080fd5b336000908152600660205260409020805460ff19166001179055801561091857600a80546008906108f590600160401b900463ffffffff16612889565b91906101000a81548163ffffffff021916908363ffffffff160217905550610954565b600a8054600c9061093590600160601b900463ffffffff16612889565b91906101000a81548163ffffffff021916908363ffffffff1602179055505b60405181151581527f33e0aef8fd5a66b709a18163b355c328506432a11b821535914503517f3657e29060200160405180910390a150505050565b60026109c963ffffffff7f000000000000000000000000000000000000000000000000000000000000000016670de0b6b3a7640000612822565b6109d39190612863565b600a546001600160401b039190911690610a039063ffffffff600160601b8204811691600160401b9004166128ac565b610a1b9063ffffffff16670de0b6b3a7640000612822565b6001600160401b03161015610a2f57600080fd5b6002610a6963ffffffff7f000000000000000000000000000000000000000000000000000000000000000016670de0b6b3a7640000612822565b610a739190612863565b6001600160401b0316600c541015610a8a57600080fd5b610acd600b54848480806020026020016040519081016040528093929190818152602001838360200280828437600092019190915250339250869150610f619050565b610ae95760405162461bcd60e51b81526004016106f6906127dc565b3360009081526008602052604090205460ff1615610b0657600080fd5b336000908152600860205260408120805460ff19166001179055600d8054670de0b6b3a76400009290610b3a9084906128d0565b909155505042600f55600d546040519081527f8b46a6da2109b44521b4bc62c5f90dbf7c48b30e54f5489fb1dfc5308bb21491906020015b60405180910390a1505050565b6001600160a01b038516331480610b9b5750610b9b85336105fc565b610bb75760405162461bcd60e51b81526004016106f6906128e3565b610bc485858585856116a0565b5050505050565b60108054610bd8906126c8565b80601f0160208091040260200160405190810160405280929190818152602001828054610c04906126c8565b8015610c515780601f10610c2657610100808354040283529160200191610c51565b820191906000526020600020905b815481529060010190602001808311610c3457829003601f168201915b505050505081565b610c6161187d565b600f54610c70906102586128d0565b421015610cd55760405162461bcd60e51b815260206004820152602d60248201527f43616e6e6f7420776974686472617720756e74696c206f6e65207765656b206160448201526c199d195c8819d85b5948195b99609a1b60648201526084016106f6565b604051600090339047908381818185875af1925050503d8060008114610d17576040519150601f19603f3d011682016040523d82523d6000602084013e610d1c565b606091505b5050905080610d2a57600080fd5b50565b60608151835114610d925760405162461bcd60e51b815260206004820152602960248201527f455243313135353a206163636f756e747320616e6420696473206c656e677468604482015268040dad2e6dac2e8c6d60bb1b60648201526084016106f6565b600083516001600160401b03811115610dad57610dad612208565b604051908082528060200260200182016040528015610dd6578160200160208202803683370190505b50905060005b8451811015610e4e57610e21858281518110610dfa57610dfa612931565b6020026020010151858381518110610e1457610e14612931565b602002602001015161068f565b828281518110610e3357610e33612931565b6020908102919091010152610e4781612947565b9050610ddc565b509392505050565b610e5e61187d565b610e6860006118d7565b565b610e75338383611929565b5050565b610ebc600b54848480806020026020016040519081016040528093929190818152602001838360200280828437600092019190915250339250869150610f619050565b610ed85760405162461bcd60e51b81526004016106f6906127dc565b3360009081526007602052604090205460ff1615610ef557600080fd5b336000908152600760205260408120805460ff19166001179055600c8054670de0b6b3a76400009290610f299084906128d0565b9091555050600c546040519081527fdd46706411699aec226ace110b250b6f96fbb87d53d31a16657abf086a7ba6bb90602001610b72565b6040516bffffffffffffffffffffffff19606084901b166020820152600090819060340160405160208183030381529060405280519060200120905060005b855181101561105a576000868281518110610fbd57610fbd612931565b60200260200101519050600285610fd49190612960565b60000361100c576040805160208101859052908101829052606001604051602081830303815290604052805190602001209250611039565b60408051602081018390529081018490526060016040516020818303038152906040528051906020012092505b611044600286612974565b945050808061105290612947565b915050610fa0565b50909414949350505050565b60026110a063ffffffff7f000000000000000000000000000000000000000000000000000000000000000016670de0b6b3a7640000612822565b6110aa9190612863565b6001600160401b0316600d5410156110f45760405162461bcd60e51b815260206004820152600d60248201526c33b0b6b2903737ba1037bb32b960991b60448201526064016106f6565b3360009081526009602052604090205460ff16156111435760405162461bcd60e51b815260206004820152600c60248201526b185b1c9958591e481c185a5960a21b60448201526064016106f6565b600061114d611a09565b3360009081526004602052604090205490915060ff161515811515146111a75760405162461bcd60e51b815260206004820152600f60248201526e796f7520766f7465642077726f6e6760881b60448201526064016106f6565b3360009081526005602052604090205460ff166111f85760405162461bcd60e51b815260206004820152600f60248201526e796f75206469646e277420766f746560881b60448201526064016106f6565b336000908152600960205260408120805460ff1916600117905561121b82611a3b565b604051909150600090339083908381818185875af1925050503d8060008114611260576040519150601f19603f3d011682016040523d82523d6000602084013e611265565b606091505b50509050806112ad5760405162461bcd60e51b81526020600482015260146024820152732330b4b632b2103a379039b2b7321022ba3432b960611b60448201526064016106f6565b7f6dd94738d3e370db2f2c075af1522736ba244cbc74aaee9fc81fab634bf9bc1d600e54604051610b7291815260200190565b600261131a63ffffffff7f000000000000000000000000000000000000000000000000000000000000000016670de0b6b3a7640000612822565b6113249190612863565b6001600160401b0316600c541061136b5760405162461bcd60e51b815260206004820152600b60248201526a18995d1cc81b1bd8dad95960aa1b60448201526064016106f6565b7f000000000000000000000000000000000000000000000000000000000000000034146113c95760405162461bcd60e51b815260206004820152600c60248201526b1ddc9bdb99c8185b5bdd5b9d60a21b60448201526064016106f6565b3360009081526005602052604090205460ff16156114195760405162461bcd60e51b815260206004820152600d60248201526c185b1c9958591e481d9bdd1959609a1b60448201526064016106f6565b336000908152600460209081526040808320805485151560ff199182161790915560059092528220805490911660011790556011805434929061145d9084906128d0565b909155505080156114bd57600a805460009061147e9063ffffffff16612889565b91906101000a81548163ffffffff021916908363ffffffff1602179055506114b83360018060405180602001604052806000815250611a93565b611516565b600a80546004906114db90640100000000900463ffffffff16612889565b91906101000a81548163ffffffff021916908363ffffffff160217905550611516336002600160405180602001604052806000815250611a93565b6040805134815282151560208201527f9a40832110085806ce0daa7ebb4f4e3bef42e1f3165c89fade2c556ca8155b75910160405180910390a150565b6001600160a01b03851633148061156f575061156f85336105fc565b61158b5760405162461bcd60e51b81526004016106f6906128e3565b610bc48585858585611ba7565b6115a061187d565b6001600160a01b0381166116055760405162461bcd60e51b815260206004820152602660248201527f4f776e61626c653a206e6577206f776e657220697320746865207a65726f206160448201526564647265737360d01b60648201526084016106f6565b610d2a816118d7565b6060600061161b83611cd1565b60010190506000816001600160401b0381111561163a5761163a612208565b6040519080825280601f01601f191660200182016040528015611664576020820181803683370190505b5090508181016020015b600019016f181899199a1a9b1b9c1cb0b131b232b360811b600a86061a8153600a850494508461166e57509392505050565b81518351146117025760405162461bcd60e51b815260206004820152602860248201527f455243313135353a2069647320616e6420616d6f756e7473206c656e677468206044820152670dad2e6dac2e8c6d60c31b60648201526084016106f6565b6001600160a01b0384166117285760405162461bcd60e51b81526004016106f690612988565b3360005b845181101561180f57600085828151811061174957611749612931565b60200260200101519050600085838151811061176757611767612931565b602090810291909101810151600084815280835260408082206001600160a01b038e1683529093529190912054909150818110156117b75760405162461bcd60e51b81526004016106f6906129cd565b6000838152602081815260408083206001600160a01b038e8116855292528083208585039055908b168252812080548492906117f49084906128d0565b925050819055505050508061180890612947565b905061172c565b50846001600160a01b0316866001600160a01b0316826001600160a01b03167f4a39dc06d4c0dbc64b70af90fd698a233a518aa5d07e595d983b8c0526c8f7fb878760405161185f929190612a17565b60405180910390a4611875818787878787611da9565b505050505050565b6003546001600160a01b03163314610e685760405162461bcd60e51b815260206004820181905260248201527f4f776e61626c653a2063616c6c6572206973206e6f7420746865206f776e657260448201526064016106f6565b600380546001600160a01b038381166001600160a01b0319831681179093556040519116919082907f8be0079c531659141344cd1fd0a4f28419497f9722a3daafe3b4186f6b6457e090600090a35050565b816001600160a01b0316836001600160a01b03160361199c5760405162461bcd60e51b815260206004820152602960248201527f455243313135353a2073657474696e6720617070726f76616c20737461747573604482015268103337b91039b2b63360b91b60648201526084016106f6565b6001600160a01b03838116600081815260016020908152604080832094871680845294825291829020805460ff191686151590811790915591519182527f17307eab39ab6107e8899845ad3d59bd9653f200f220920489ca2b5937696c31910160405180910390a3505050565b600a5460009063ffffffff600160601b82048116600160401b909204161115611a325750600190565b50600090565b90565b6000600e54600003611a8b57811515600103611a6c57600a54611a649063ffffffff1647612974565b600e55611a8b565b600a54611a8790640100000000900463ffffffff1647612974565b600e555b5050600e5490565b6001600160a01b038416611af35760405162461bcd60e51b815260206004820152602160248201527f455243313135353a206d696e7420746f20746865207a65726f206164647265736044820152607360f81b60648201526084016106f6565b336000611aff85611f04565b90506000611b0c85611f04565b90506000868152602081815260408083206001600160a01b038b16845290915281208054879290611b3e9084906128d0565b909155505060408051878152602081018790526001600160a01b03808a1692600092918716917fc3d58168c5ae7397731d063d5bbf3d657854427343f4c083240f7aacaa2d0f62910160405180910390a4611b9e83600089898989611f4f565b50505050505050565b6001600160a01b038416611bcd5760405162461bcd60e51b81526004016106f690612988565b336000611bd985611f04565b90506000611be685611f04565b90506000868152602081815260408083206001600160a01b038c16845290915290205485811015611c295760405162461bcd60e51b81526004016106f6906129cd565b6000878152602081815260408083206001600160a01b038d8116855292528083208985039055908a16825281208054889290611c669084906128d0565b909155505060408051888152602081018890526001600160a01b03808b16928c821692918816917fc3d58168c5ae7397731d063d5bbf3d657854427343f4c083240f7aacaa2d0f62910160405180910390a4611cc6848a8a8a8a8a611f4f565b505050505050505050565b60008072184f03e93ff9f4daa797ed6e38ed64bf6a1f0160401b8310611d105772184f03e93ff9f4daa797ed6e38ed64bf6a1f0160401b830492506040015b6d04ee2d6d415b85acef81000000008310611d3c576d04ee2d6d415b85acef8100000000830492506020015b662386f26fc100008310611d5a57662386f26fc10000830492506010015b6305f5e1008310611d72576305f5e100830492506008015b6127108310611d8657612710830492506004015b60648310611d98576064830492506002015b600a83106107225760010192915050565b6001600160a01b0384163b156118755760405163bc197c8160e01b81526001600160a01b0385169063bc197c8190611ded9089908990889088908890600401612a3c565b6020604051808303816000875af1925050508015611e28575060408051601f3d908101601f19168201909252611e2591810190612a9a565b60015b611ed457611e34612ab7565b806308c379a003611e6d5750611e48612ad2565b80611e535750611e6f565b8060405162461bcd60e51b81526004016106f691906120da565b505b60405162461bcd60e51b815260206004820152603460248201527f455243313135353a207472616e7366657220746f206e6f6e2d455243313135356044820152732932b1b2b4bb32b91034b6b83632b6b2b73a32b960611b60648201526084016106f6565b6001600160e01b0319811663bc197c8160e01b14611b9e5760405162461bcd60e51b81526004016106f690612b5b565b60408051600180825281830190925260609160009190602080830190803683370190505090508281600081518110611f3e57611f3e612931565b602090810291909101015292915050565b6001600160a01b0384163b156118755760405163f23a6e6160e01b81526001600160a01b0385169063f23a6e6190611f939089908990889088908890600401612ba3565b6020604051808303816000875af1925050508015611fce575060408051601f3d908101601f19168201909252611fcb91810190612a9a565b60015b611fda57611e34612ab7565b6001600160e01b0319811663f23a6e6160e01b14611b9e5760405162461bcd60e51b81526004016106f690612b5b565b80356001600160a01b038116811461202157600080fd5b919050565b6000806040838503121561203957600080fd5b6120428361200a565b946020939093013593505050565b6001600160e01b031981168114610d2a57600080fd5b60006020828403121561207857600080fd5b813561208381612050565b9392505050565b60005b838110156120a557818101518382015260200161208d565b50506000910152565b600081518084526120c681602086016020860161208a565b601f01601f19169290920160200192915050565b60208152600061208360208301846120ae565b6000602082840312156120ff57600080fd5b5035919050565b60008083601f84011261211857600080fd5b5081356001600160401b0381111561212f57600080fd5b6020830191508360208260051b850101111561214a57600080fd5b9250929050565b8035801515811461202157600080fd5b6000806000806060858703121561217757600080fd5b84356001600160401b0381111561218d57600080fd5b61219987828801612106565b909550935050602085013591506121b260408601612151565b905092959194509250565b6000806000604084860312156121d257600080fd5b83356001600160401b038111156121e857600080fd5b6121f486828701612106565b909790965060209590950135949350505050565b634e487b7160e01b600052604160045260246000fd5b601f8201601f191681016001600160401b038111828210171561224357612243612208565b6040525050565b60006001600160401b0382111561226357612263612208565b5060051b60200190565b600082601f83011261227e57600080fd5b8135602061228b8261224a565b604051612298828261221e565b83815260059390931b85018201928281019150868411156122b857600080fd5b8286015b848110156122d357803583529183019183016122bc565b509695505050505050565b600082601f8301126122ef57600080fd5b81356001600160401b0381111561230857612308612208565b60405161231f601f8301601f19166020018261221e565b81815284602083860101111561233457600080fd5b816020850160208301376000918101602001919091529392505050565b600080600080600060a0868803121561236957600080fd5b6123728661200a565b94506123806020870161200a565b935060408601356001600160401b038082111561239c57600080fd5b6123a889838a0161226d565b945060608801359150808211156123be57600080fd5b6123ca89838a0161226d565b935060808801359150808211156123e057600080fd5b506123ed888289016122de565b9150509295509295909350565b60006020828403121561240c57600080fd5b6120838261200a565b6000806040838503121561242857600080fd5b82356001600160401b038082111561243f57600080fd5b818501915085601f83011261245357600080fd5b813560206124608261224a565b60405161246d828261221e565b83815260059390931b850182019282810191508984111561248d57600080fd5b948201945b838610156124b2576124a38661200a565b82529482019490820190612492565b965050860135925050808211156124c857600080fd5b506124d58582860161226d565b9150509250929050565b600081518084526020808501945080840160005b8381101561250f578151875295820195908201906001016124f3565b509495945050505050565b60208152600061208360208301846124df565b6000806040838503121561254057600080fd5b6125498361200a565b915061255760208401612151565b90509250929050565b6000806000806080858703121561257657600080fd5b843593506020808601356001600160401b0381111561259457600080fd5b8601601f810188136125a557600080fd5b80356125b08161224a565b6040516125bd828261221e565b82815260059290921b830184019184810191508a8311156125dd57600080fd5b928401925b828410156125fb578335825292840192908401906125e2565b809750505050505061260f6040860161200a565b9396929550929360600135925050565b60006020828403121561263157600080fd5b61208382612151565b6000806040838503121561264d57600080fd5b6126568361200a565b91506125576020840161200a565b600080600080600060a0868803121561267c57600080fd5b6126858661200a565b94506126936020870161200a565b9350604086013592506060860135915060808601356001600160401b038111156126bc57600080fd5b6123ed888289016122de565b600181811c908216806126dc57607f821691505b6020821081036126fc57634e487b7160e01b600052602260045260246000fd5b50919050565b6000815161271481856020860161208a565b9290920192915050565b600080845481600182811c91508083168061273a57607f831692505b6020808410820361275957634e487b7160e01b86526022600452602486fd5b81801561276d5760018114612782576127af565b60ff19861689528415158502890196506127af565b60008b81526020902060005b868110156127a75781548b82015290850190830161278e565b505084890196505b5050505050506127d36127c28286612702565b64173539b7b760d91b815260050190565b95945050505050565b6020808252601690820152753330b4b632b2103a37903b32b934b33c90383937b7b360511b604082015260600190565b634e487b7160e01b600052601160045260246000fd5b6001600160401b038181168382160280821691908281146128455761284561280c565b505092915050565b634e487b7160e01b600052601260045260246000fd5b60006001600160401b038084168061287d5761287d61284d565b92169190910492915050565b600063ffffffff8083168181036128a2576128a261280c565b6001019392505050565b63ffffffff8181168382160190808211156128c9576128c961280c565b5092915050565b808201808211156107225761072261280c565b6020808252602e908201527f455243313135353a2063616c6c6572206973206e6f7420746f6b656e206f776e60408201526d195c881bdc88185c1c1c9bdd995960921b606082015260800190565b634e487b7160e01b600052603260045260246000fd5b6000600182016129595761295961280c565b5060010190565b60008261296f5761296f61284d565b500690565b6000826129835761298361284d565b500490565b60208082526025908201527f455243313135353a207472616e7366657220746f20746865207a65726f206164604082015264647265737360d81b606082015260800190565b6020808252602a908201527f455243313135353a20696e73756666696369656e742062616c616e636520666f60408201526939103a3930b739b332b960b11b606082015260800190565b604081526000612a2a60408301856124df565b82810360208401526127d381856124df565b6001600160a01b0386811682528516602082015260a060408201819052600090612a68908301866124df565b8281036060840152612a7a81866124df565b90508281036080840152612a8e81856120ae565b98975050505050505050565b600060208284031215612aac57600080fd5b815161208381612050565b600060033d1115611a385760046000803e5060005160e01c90565b600060443d1015612ae05790565b6040516003193d81016004833e81513d6001600160401b038160248401118184111715612b0f57505050505090565b8285019150815181811115612b275750505050505090565b843d8701016020828501011115612b415750505050505090565b612b506020828601018761221e565b509095945050505050565b60208082526028908201527f455243313135353a204552433131353552656365697665722072656a656374656040820152676420746f6b656e7360c01b606082015260800190565b6001600160a01b03868116825285166020820152604081018490526060810183905260a060808201819052600090612bdd908301846120ae565b97965050505050505056fea2646970667358221220a94a680dfa3846844e158726bc3e7719b119820e86632d5fb91195a5a0bdcc8e64736f6c63430008130033",
  "linkReferences": {},
  "deployedLinkReferences": {}
}